{
  "contractName": "getHub",
  "abi": [
    {
      "inputs": [],
      "payable": false,
      "stateMutability": "nonpayable",
      "type": "constructor"
    },
    {
      "anonymous": false,
      "inputs": [
        {
          "indexed": false,
          "internalType": "address",
          "name": "sender",
          "type": "address"
        },
        {
          "indexed": false,
          "internalType": "address",
          "name": "receiver",
          "type": "address"
        },
        {
          "indexed": false,
          "internalType": "uint256",
          "name": "amount",
          "type": "uint256"
        }
      ],
      "name": "Transfer",
      "type": "event"
    },
    {
      "constant": true,
      "inputs": [],
      "name": "deployed",
      "outputs": [
        {
          "internalType": "address",
          "name": "",
          "type": "address"
        }
      ],
      "payable": false,
      "stateMutability": "view",
      "type": "function"
    },
    {
      "constant": true,
      "inputs": [
        {
          "internalType": "uint256",
          "name": "",
          "type": "uint256"
        }
      ],
      "name": "details",
      "outputs": [
        {
          "internalType": "address payable",
          "name": "owner",
          "type": "address"
        },
        {
          "internalType": "string",
          "name": "ipfsDest",
          "type": "string"
        },
        {
          "internalType": "bool",
          "name": "tradable",
          "type": "bool"
        },
        {
          "internalType": "bool",
          "name": "openSource",
          "type": "bool"
        },
        {
          "internalType": "uint256",
          "name": "cost",
          "type": "uint256"
        },
        {
          "internalType": "uint256",
          "name": "fundRaised",
          "type": "uint256"
        }
      ],
      "payable": false,
      "stateMutability": "view",
      "type": "function"
    },
    {
      "constant": false,
      "inputs": [
        {
          "internalType": "string",
          "name": "ipfsDest",
          "type": "string"
        },
        {
          "internalType": "bool",
          "name": "tradable",
          "type": "bool"
        },
        {
          "internalType": "uint256",
          "name": "cost",
          "type": "uint256"
        }
      ],
      "name": "addDetails",
      "outputs": [],
      "payable": false,
      "stateMutability": "nonpayable",
      "type": "function"
    },
    {
      "constant": false,
      "inputs": [
        {
          "internalType": "bool",
          "name": "openSource",
          "type": "bool"
        },
        {
          "internalType": "string",
          "name": "ipfsDest",
          "type": "string"
        }
      ],
      "name": "changeOpenSource",
      "outputs": [],
      "payable": false,
      "stateMutability": "nonpayable",
      "type": "function"
    },
    {
      "constant": false,
      "inputs": [
        {
          "internalType": "bool",
          "name": "tradable",
          "type": "bool"
        },
        {
          "internalType": "string",
          "name": "ipfsDest",
          "type": "string"
        }
      ],
      "name": "changeTradable",
      "outputs": [],
      "payable": false,
      "stateMutability": "nonpayable",
      "type": "function"
    },
    {
      "constant": false,
      "inputs": [
        {
          "internalType": "string",
          "name": "ipfsDest",
          "type": "string"
        },
        {
          "internalType": "address payable",
          "name": "newOwner",
          "type": "address"
        }
      ],
      "name": "trade",
      "outputs": [],
      "payable": true,
      "stateMutability": "payable",
      "type": "function"
    },
    {
      "constant": false,
      "inputs": [
        {
          "internalType": "string",
          "name": "ipfsDest",
          "type": "string"
        },
        {
          "internalType": "uint256",
          "name": "cost",
          "type": "uint256"
        }
      ],
      "name": "changeCost",
      "outputs": [],
      "payable": false,
      "stateMutability": "nonpayable",
      "type": "function"
    },
    {
      "constant": false,
      "inputs": [
        {
          "internalType": "string",
          "name": "ipfsDest",
          "type": "string"
        }
      ],
      "name": "crowdFunding",
      "outputs": [],
      "payable": true,
      "stateMutability": "payable",
      "type": "function"
    }
  ],
  "bytecode": "0x608060405234801561001057600080fd5b50306000806101000a81548173ffffffffffffffffffffffffffffffffffffffff021916908373ffffffffffffffffffffffffffffffffffffffff16021790555061155d806100606000396000f3fe60806040526004361061007b5760003560e01c8063a005ec7a1161004e578063a005ec7a146103bc578063e1a46ea1146104c7578063e7f40a45146105a5578063f905c15a146106795761007b565b806314fc0cd6146100805780635bbcec25146101525780638484820a146102265780638c5f43aa14610301575b600080fd5b34801561008c57600080fd5b50610150600480360360408110156100a357600080fd5b81019080803590602001906401000000008111156100c057600080fd5b8201836020820111156100d257600080fd5b803590602001918460018302840111640100000000831117156100f457600080fd5b91908080601f016020809104026020016040519081016040528093929190818152602001838380828437600081840152601f19601f820116905080830192505050505050509192919290803590602001909291905050506106d0565b005b34801561015e57600080fd5b506102246004803603604081101561017557600080fd5b810190808035151590602001909291908035906020019064010000000081111561019e57600080fd5b8201836020820111156101b057600080fd5b803590602001918460018302840111640100000000831117156101d257600080fd5b91908080601f016020809104026020016040519081016040528093929190818152602001838380828437600081840152601f19601f820116905080830192505050505050509192919290505050610828565b005b6102ff6004803603604081101561023c57600080fd5b810190808035906020019064010000000081111561025957600080fd5b82018360208201111561026b57600080fd5b8035906020019184600183028401116401000000008311171561028d57600080fd5b91908080601f016020809104026020016040519081016040528093929190818152602001838380828437600081840152601f19601f820116905080830192505050505050509192919290803573ffffffffffffffffffffffffffffffffffffffff169060200190929190505050610a39565b005b6103ba6004803603602081101561031757600080fd5b810190808035906020019064010000000081111561033457600080fd5b82018360208201111561034657600080fd5b8035906020019184600183028401116401000000008311171561036857600080fd5b91908080601f016020809104026020016040519081016040528093929190818152602001838380828437600081840152601f19601f820116905080830192505050505050509192919290505050610d4f565b005b3480156103c857600080fd5b506103f5600480360360208110156103df57600080fd5b8101908080359060200190929190505050610fa0565b604051808773ffffffffffffffffffffffffffffffffffffffff1673ffffffffffffffffffffffffffffffffffffffff168152602001806020018615151515815260200185151515158152602001848152602001838152602001828103825287818151815260200191508051906020019080838360005b8381101561048757808201518184015260208101905061046c565b50505050905090810190601f1680156104b45780820380516001836020036101000a031916815260200191505b5097505050505050505060405180910390f35b3480156104d357600080fd5b506105a3600480360360608110156104ea57600080fd5b810190808035906020019064010000000081111561050757600080fd5b82018360208201111561051957600080fd5b8035906020019184600183028401116401000000008311171561053b57600080fd5b91908080601f016020809104026020016040519081016040528093929190818152602001838380828437600081840152601f19601f820116905080830192505050505050509192919290803515159060200190929190803590602001909291905050506110bb565b005b3480156105b157600080fd5b50610677600480360360408110156105c857600080fd5b81019080803515159060200190929190803590602001906401000000008111156105f157600080fd5b82018360208201111561060357600080fd5b8035906020019184600183028401116401000000008311171561062557600080fd5b91908080601f016020809104026020016040519081016040528093929190818152602001838380828437600081840152601f19601f8201169050808301925050505050505091929192905050506111fd565b005b34801561068557600080fd5b5061068e61140e565b604051808273ffffffffffffffffffffffffffffffffffffffff1673ffffffffffffffffffffffffffffffffffffffff16815260200191505060405180910390f35b60008090505b60018054905081101561082357826040516020018082805190602001908083835b6020831061071a57805182526020820191506020810190506020830392506106f7565b6001836020036101000a038019825116818451168082178552505050505050905001915050604051602081830303815290604052805190602001206001828154811061076257fe5b906000526020600020906005020160010160405160200180828054600181600116156101000203166002900480156107d15780601f106107af5761010080835404028352918201916107d1565b820191906000526020600020905b8154815290600101906020018083116107bd575b505091505060405160208183030381529060405280519060200120141561081657816001828154811061080057fe5b9060005260206000209060050201600301819055505b80806001019150506106d6565b505050565b60008090505b600180549050811015610a3457816040516020018082805190602001908083835b60208310610872578051825260208201915060208101905060208303925061084f565b6001836020036101000a03801982511681845116808217855250505050505090500191505060405160208183030381529060405280519060200120600182815481106108ba57fe5b906000526020600020906005020160010160405160200180828054600181600116156101000203166002900480156109295780601f10610907576101008083540402835291820191610929565b820191906000526020600020905b815481529060010190602001808311610915575b5050915050604051602081830303815290604052805190602001201480156109ba57503373ffffffffffffffffffffffffffffffffffffffff166001828154811061097057fe5b906000526020600020906005020160000160009054906101000a900473ffffffffffffffffffffffffffffffffffffffff1673ffffffffffffffffffffffffffffffffffffffff16145b15610a2757600181815481106109cc57fe5b906000526020600020906005020160020160019054906101000a900460ff16610a265782600182815481106109fd57fe5b906000526020600020906005020160020160006101000a81548160ff0219169083151502179055505b5b808060010191505061082e565b505050565b60008090505b600180549050811015610d4a57826040516020018082805190602001908083835b60208310610a835780518252602082019150602081019050602083039250610a60565b6001836020036101000a0380198251168184511680821785525050505050509050019150506040516020818303038152906040528051906020012060018281548110610acb57fe5b90600052602060002090600502016001016040516020018082805460018160011615610100020316600290048015610b3a5780601f10610b18576101008083540402835291820191610b3a565b820191906000526020600020905b815481529060010190602001808311610b26575b5050915050604051602081830303815290604052805190602001201415610d3d5760018181548110610b6857fe5b9060005260206000209060050201600301543414610bee576040517f08c379a00000000000000000000000000000000000000000000000000000000081526004018080602001828103825260148152602001807f4661696c656420746f2073656e6420457468657200000000000000000000000081525060200191505060405180910390fd5b600060018281548110610bfd57fe5b906000526020600020906005020160000160009054906101000a900473ffffffffffffffffffffffffffffffffffffffff16905060008173ffffffffffffffffffffffffffffffffffffffff166108fc349081150290604051600060405180830381858888f19350505050905080610cdd576040517f08c379a00000000000000000000000000000000000000000000000000000000081526004018080602001828103825260148152602001807f4661696c656420746f2073656e6420457468657200000000000000000000000081525060200191505060405180910390fd5b8360018481548110610ceb57fe5b906000526020600020906005020160000160006101000a81548173ffffffffffffffffffffffffffffffffffffffff021916908373ffffffffffffffffffffffffffffffffffffffff16021790555050505b8080600101915050610a3f565b505050565b60008090505b600180549050811015610f9c57816040516020018082805190602001908083835b60208310610d995780518252602082019150602081019050602083039250610d76565b6001836020036101000a0380198251168184511680821785525050505050509050019150506040516020818303038152906040528051906020012060018281548110610de157fe5b90600052602060002090600502016001016040516020018082805460018160011615610100020316600290048015610e505780601f10610e2e576101008083540402835291820191610e50565b820191906000526020600020905b815481529060010190602001808311610e3c575b5050915050604051602081830303815290604052805190602001201415610f8f57600060018281548110610e8057fe5b906000526020600020906005020160000160009054906101000a900473ffffffffffffffffffffffffffffffffffffffff16905060008173ffffffffffffffffffffffffffffffffffffffff166108fc349081150290604051600060405180830381858888f19350505050905080610f60576040517f08c379a00000000000000000000000000000000000000000000000000000000081526004018080602001828103825260148152602001807f4661696c656420746f2073656e6420457468657200000000000000000000000081525060200191505060405180910390fd5b3460018481548110610f6e57fe5b90600052602060002090600502016004016000828254019250508190555050505b8080600101915050610d55565b5050565b60018181548110610fad57fe5b90600052602060002090600502016000915090508060000160009054906101000a900473ffffffffffffffffffffffffffffffffffffffff1690806001018054600181600116156101000203166002900480601f01602080910402602001604051908101604052809291908181526020018280546001816001161561010002031660029004801561107f5780601f106110545761010080835404028352916020019161107f565b820191906000526020600020905b81548152906001019060200180831161106257829003601f168201915b5050505050908060020160009054906101000a900460ff16908060020160019054906101000a900460ff16908060030154908060040154905086565b6110c3611433565b6040518060c001604052803373ffffffffffffffffffffffffffffffffffffffff1681526020018581526020018415158152602001600015158152602001838152602001600081525090506001819080600181540180825580915050906001820390600052602060002090600502016000909192909190915060008201518160000160006101000a81548173ffffffffffffffffffffffffffffffffffffffff021916908373ffffffffffffffffffffffffffffffffffffffff160217905550602082015181600101908051906020019061119f929190611483565b5060408201518160020160006101000a81548160ff02191690831515021790555060608201518160020160016101000a81548160ff0219169083151502179055506080820151816003015560a0820151816004015550505050505050565b60008090505b60018054905081101561140957816040516020018082805190602001908083835b602083106112475780518252602082019150602081019050602083039250611224565b6001836020036101000a038019825116818451168082178552505050505050905001915050604051602081830303815290604052805190602001206001828154811061128f57fe5b906000526020600020906005020160010160405160200180828054600181600116156101000203166002900480156112fe5780601f106112dc5761010080835404028352918201916112fe565b820191906000526020600020905b8154815290600101906020018083116112ea575b50509150506040516020818303038152906040528051906020012014801561138f57503373ffffffffffffffffffffffffffffffffffffffff166001828154811061134557fe5b906000526020600020906005020160000160009054906101000a900473ffffffffffffffffffffffffffffffffffffffff1673ffffffffffffffffffffffffffffffffffffffff16145b156113fc57600181815481106113a157fe5b906000526020600020906005020160020160009054906101000a900460ff166113fb5782600182815481106113d257fe5b906000526020600020906005020160020160016101000a81548160ff0219169083151502179055505b5b8080600101915050611203565b505050565b6000809054906101000a900473ffffffffffffffffffffffffffffffffffffffff1681565b6040518060c00160405280600073ffffffffffffffffffffffffffffffffffffffff1681526020016060815260200160001515815260200160001515815260200160008152602001600081525090565b828054600181600116156101000203166002900490600052602060002090601f016020900481019282601f106114c457805160ff19168380011785556114f2565b828001600101855582156114f2579182015b828111156114f15782518255916020019190600101906114d6565b5b5090506114ff9190611503565b5090565b61152591905b80821115611521576000816000905550600101611509565b5090565b9056fea265627a7a7231582085d2e20aaa488c08c48c0494986445743700f94320c9dcdd4a4178543135645764736f6c63430005100032",
  "source": "// SPDX-License-Identifier: MIT\r\npragma solidity ^0.5.0;\r\n\r\ncontract getHub{\r\n    address public deployed;\r\n\r\n    event Transfer(address sender, address receiver, uint amount);\r\n\r\n    constructor() public{\r\n        deployed = address(this);\r\n    }\r\n\r\n    struct Details {\r\n        address payable owner;\r\n        string ipfsDest;\r\n        bool tradable;\r\n        bool openSource;\r\n        uint cost;\r\n        uint fundRaised;\r\n    }\r\n\r\n    Details[] public details;\r\n\r\n    function addDetails(string memory ipfsDest,bool tradable,uint cost) public{\r\n        Details memory temp = Details(msg.sender, ipfsDest, tradable, false, cost, 0);\r\n        details.push(temp);\r\n    }\r\n\r\n    function changeOpenSource(bool openSource, string memory ipfsDest) public{\r\n        for(uint i=0; i<details.length; i++){\r\n            if(keccak256(abi.encodePacked(details[i].ipfsDest))==keccak256(abi.encodePacked(ipfsDest))&& details[i].owner == msg.sender)\r\n                if(!details[i].tradable)\r\n                    details[i].openSource = openSource;\r\n        }\r\n    }\r\n\r\n    function changeTradable(bool tradable, string memory ipfsDest) public{\r\n        for(uint i=0; i<details.length; i++){\r\n            if(keccak256(abi.encodePacked(details[i].ipfsDest))==keccak256(abi.encodePacked(ipfsDest)) && details[i].owner == msg.sender)\r\n                if(!details[i].openSource)\r\n                    details[i].tradable = tradable;\r\n        }\r\n    }\r\n\r\n    function trade(string memory ipfsDest, address payable newOwner) public payable{\r\n        for(uint i=0; i<details.length; i++){\r\n            if(keccak256(abi.encodePacked(details[i].ipfsDest))==keccak256(abi.encodePacked(ipfsDest))){\r\n                require(msg.value == details[i].cost, \"Failed to send Ether\");\r\n                address payable dest = details[i].owner;\r\n                bool pay = dest.send(msg.value);\r\n                require(pay, \"Failed to send Ether\");\r\n                details[i].owner = newOwner;\r\n            }\r\n        }\r\n    }\r\n\r\n    function changeCost(string memory ipfsDest,uint cost) public{\r\n        for(uint i=0; i<details.length; i++){\r\n            if(keccak256(abi.encodePacked(details[i].ipfsDest))==keccak256(abi.encodePacked(ipfsDest))){\r\n                details[i].cost = cost;\r\n            }\r\n        }\r\n    }\r\n\r\n    function crowdFunding(string memory ipfsDest) public payable{\r\n        for(uint i=0; i<details.length; i++){\r\n            if(keccak256(abi.encodePacked(details[i].ipfsDest))==keccak256(abi.encodePacked(ipfsDest))){\r\n                address payable dest = details[i].owner;\r\n                bool pay = dest.send(msg.value);\r\n                require(pay, \"Failed to send Ether\");\r\n                details[i].fundRaised += msg.value;\r\n            }\r\n        }\r\n    }\r\n\r\n}",
  "sourcePath": "C:\\Users\\asus\\Desktop\\reg\\contracts\\getHub.sol",
  "compiler": {
    "name": "solc",
    "version": "0.5.16+commit.9c3226ce.Emscripten.clang"
  },
  "schemaVersion": "3.4.3",
  "updatedAt": "2021-12-12T09:48:16.115Z",
  "networkType": "ethereum",
  "devdoc": {
    "methods": {}
  },
  "userdoc": {
    "methods": {}
  }
}